:020000040800F2
:1000000000000220453802088D3202088F320208B3
:100010009132020893320208953202080000000073
:1000200000000000000000000000000097320208FD
:1000300099320208000000009B3202089D3202083B
:100040009538020895380208953802089538020854
:100050009538020895380208953802089538020844
:100060009538020895380208953802089538020834
:100070009538020895380208953802089538020824
:1000800095380208953802089538020800000000EB
:100090000000000000000000000000009538020889
:1000A000A1320208953802089538020895380208EE
:1000B00095380208B53202089538020895380208CA
:1000C00095380208953802089538020895380208D4
:1000D00095380208C932020895380208000000006D
:1000E000953802089538020895380208000000008B
:1000F0000000000000000000000000009538020829
:100100000000000095380208D53202089538020830
:1001100000000000000000000000000000000000DF
:100120009538020895380208953802089538020873
:10013000E93202080000000000000000000000009A
:1001400000000000000000000000000095380208D8
:100150009538020895380208953802089538020843
:1001600095380208953802080000000000000000E1
:10017000000000000000000000000000000000007F
:100180000000000095380208000000000000000098
:080190009538020895380208B9
:1001A00010B5054C237833B9044B13B10448AFF3B1
:1001B00000800123237010BDE80100200000000032
:1001C000589E020808B5034B1BB103490348AFF31F
:1001D000008008BD00000000EC010020589E0208CD
:1001E000034613F8012B002AFBD1181A0138704777
:1001F00001F0FF01102A2BDB10F0070F08D010F8D8
:10020000013B013A8B422DD010F0070F42B3F6D1DB
:10021000F0B441EA012141EA014122F007047FF0F4
:1002200000070023F0E80256083C85EA010586EA4B
:10023000010685FA47F5A3FA87F586FA47F6A5FA87
:1002400087F68EB9EED1F0BC01F0FF0102F0070293
:1002500032B110F8013B013A83EA010313B1F8D13E
:100260000020704701387047002D06BF354603381F
:10027000073815F0010F07D1013015F4807F02BF58
:10028000013015F4C03F0130F0BC0138704700BFA9
:1002900081F0004102E000BF83F0004330B54FEA37
:1002A00041044FEA430594EA050F08BF90EA020FA4
:1002B0001FBF54EA000C55EA020C7FEA645C7FEA37
:1002C000655C00F0E2804FEA5454D4EB5555B8BF5A
:1002D0006D420CDD2C4480EA020281EA030382EACB
:1002E000000083EA010180EA020281EA0303362D5D
:1002F00088BF30BD11F0004F4FEA01314FF4801C30
:100300004CEA113102D0404261EB410113F0004F41
:100310004FEA03334CEA133302D0524263EB4303F8
:1003200094EA050F00F0A780A4F10104D5F1200E96
:100330000DDB02FA0EFC22FA05F2801841F10001F1
:1003400003FA0EF2801843FA05F359410EE0A5F1C5
:1003500020050EF1200E012A03FA0EFC28BF4CF0F6
:10036000020C43FA05F3C01851EBE37101F00045AC
:1003700007D54FF0000EDCF1000C7EEB00006EEBB9
:100380000101B1F5801F1BD3B1F5001F0CD3490843
:100390005FEA30004FEA3C0C04F101044FEA44529A
:1003A00012F5800F80F09A80BCF1004F08BF5FEA21
:1003B000500C50F1000041EB045141EA050130BD01
:1003C0005FEA4C0C404141EB010111F4801FA4F1A4
:1003D0000104E9D191F0000F04BF01460020B1FAF9
:1003E00081F308BF2033A3F10B03B3F120020CDA31
:1003F0000C3208DD02F1140CC2F10C0201FA0CF00F
:1004000021FA02F10CE002F11402D8BFC2F1200C73
:1004100001FA02F120FA0CFCDCBF41EA0C01904029
:10042000E41AA2BF01EB0451294330BD6FEA040472
:100430001F3C1CDA0C340EDC04F11404C4F120025D
:1004400020FA04F001FA02F340EA030021FA04F36F
:1004500045EA030130BDC4F10C04C4F1200220FAC6
:1004600002F001FA04F340EA0300294630BD21FA04
:1004700004F0294630BD94F0000F83F4801306BFCA
:1004800081F480110134013D4EE77FEA645C18BFBE
:100490007FEA655C29D094EA050F08BF90EA020F55
:1004A00005D054EA000C04BF1946104630BD91EA4D
:1004B000030F1EBF0021002030BD5FEA545C05D150
:1004C0004000494128BF41F0004130BD14F580048F
:1004D0003CBF01F5801130BD01F0004545F0FE4103
:1004E00041F470014FF0000030BD7FEA645C1ABF38
:1004F000194610467FEA655C1CBF0B46024650EA6F
:10050000013406BF52EA033591EA030F41F400219A
:1005100030BD00BF90F0000F04BF0021704730B520
:100520004FF4806404F132044FF000054FF00001F5
:1005300050E700BF90F0000F04BF0021704730B5B6
:100540004FF4806404F1320410F0004548BF40428B
:100550004FF000013EE700BF42004FEAE2014FEAE0
:1005600031014FEA02701FBF12F07F4393F07F4FBB
:1005700081F06051704792F0000F14BF93F07F4FED
:10058000704730B54FF4607401F0004521F0004130
:1005900020E700BF50EA010208BF704730B54FF0B6
:1005A00000050AE050EA010208BF704730B511F0BB
:1005B000004502D5404261EB41014FF4806404F1F3
:1005C00032045FEA915C3FF4DCAE4FF003025FEA75
:1005D000DC0C18BF03325FEADC0C18BF033202EBFD
:1005E000DC02C2F1200300FA03FC20FA02F001FA57
:1005F00003FE40EA0E0021FA02F11444C1E600BFF6
:1006000070B54FF0FF0C4CF4E06C1CEA11541DBFA8
:100610001CEA135594EA0C0F95EA0C0F00F0DEF873
:100620002C4481EA030621EA4C5123EA4C5350EA58
:10063000013518BF52EA033541F4801143F48013A9
:1006400038D0A0FB02CE4FF00005E1FB02E506F03A
:100650000042E0FB03E54FF00006E1FB03569CF08F
:10066000000F18BF4EF0010EA4F1FF04B6F5007F95
:1006700064F5407404D25FEA4E0E6D4146EB060607
:1006800042EAC62141EA55514FEAC52040EA5E5090
:100690004FEACE2EB4F1FD0C88BFBCF5E06F1ED83A
:1006A000BEF1004F08BF5FEA500E50F1000041EB71
:1006B000045170BD06F0004646EA010140EA02001E
:1006C00081EA0301B4EB5C04C2BFD4EB0C0541EA40
:1006D000045170BD41F480114FF0000E013C00F355
:1006E000AB8014F1360FDEBF002001F0004170BD79
:1006F000C4F10004203C35DA0C341BDC04F1140492
:10070000C4F1200500FA05F320FA04F001FA05F21D
:1007100040EA020001F0004221F0004110EBD370EA
:1007200021FA04F642EB06015EEA430E08BF20EA16
:10073000D37070BDC4F10C04C4F1200500FA04F3B9
:1007400020FA05F001FA04F240EA020001F000414B
:1007500010EBD37041F100015EEA430E08BF20EABE
:10076000D37070BDC4F1200500FA05F24EEA020E06
:1007700020FA04F301FA05F243EA020321FA04F035
:1007800001F0004121FA04F220EA020000EBD370EC
:100790005EEA430E08BF20EAD37070BD94F0000FEC
:1007A0000FD101F00046400041EB010111F4801F20
:1007B00008BF013CF7D041EA060195F0000F18BFD1
:1007C000704703F00046520043EB030313F4801F0D
:1007D00008BF013DF7D043EA0603704794EA0C0FC7
:1007E0000CEA135518BF95EA0C0F0CD050EA4106DD
:1007F00018BF52EA4306D1D181EA030101F000415A
:100800004FF0000070BD50EA410606BF1046194681
:1008100052EA430619D094EA0C0F02D150EA01368D
:1008200013D195EA0C0F05D152EA03361CBF1046CE
:1008300019460AD181EA030101F0004141F0FE416D
:1008400041F470014FF0000070BD41F0FE4141F4F1
:10085000780170BD70B54FF0FF0C4CF4E06C1CEAF1
:1008600011541DBF1CEA135594EA0C0F95EA0C0FA6
:1008700000F0A7F8A4EB050481EA030E52EA033561
:100880004FEA013100F088804FEA03334FF0805582
:1008900045EA131343EA12634FEA022245EA1115AF
:1008A00045EA10654FEA00260EF000419D4208BF60
:1008B000964244F1FD0404F5407402D25B084FEA0D
:1008C0003202B61A65EB03055B084FEA32024FF4B9
:1008D00080104FF4002CB6EB020E75EB030E22BF16
:1008E000B61A754640EA0C005B084FEA3202B6EBD6
:1008F000020E75EB030E22BFB61A754640EA5C0085
:100900005B084FEA3202B6EB020E75EB030E22BF14
:10091000B61A754640EA9C005B084FEA3202B6EB15
:10092000020E75EB030E22BFB61A754640EADC00D4
:1009300055EA060E18D04FEA051545EA16754FEA36
:1009400006164FEAC30343EA52734FEAC2025FEA54
:100950001C1CC0D111F4801F0BD141EA00014FF0E3
:1009600000004FF0004CB6E711F4801F04BF0143B4
:100970000020B4F1FD0C88BFBCF5E06F3FF6AFAED0
:10098000B5EB030C04BFB6EB020C5FEA500C50F160
:10099000000041EB045170BD0EF0004E4EEA1131E3
:1009A00014EB5C04C2BFD4EB0C0541EA045170BDEA
:1009B00041F480114FF0000E013C90E645EA060E2E
:1009C0008DE60CEA135594EA0C0F08BF95EA0C0F5C
:1009D0003FF43BAF94EA0C0F0AD150EA01347FF4A4
:1009E00034AF95EA0C0F7FF425AF104619462CE77B
:1009F00095EA0C0F06D152EA03353FF4FDAE1046DE
:100A0000194622E750EA410618BF52EA43067FF42E
:100A1000C5AE50EA41047FF40DAF52EA43057FF4BE
:100A2000EBAE12E74FF0FF3C06E000BF4FF0010CC9
:100A300002E000BF4FF0010C4DF804CD4FEA410C2D
:100A40007FEA6C5C4FEA430C18BF7FEA6C5C1BD0FA
:100A500001B050EA410C0CBF52EA430C91EA030F7B
:100A600002BF90EA020F0020704710F1000F91EAD8
:100A7000030F58BF994208BF90422CBFD8176FEAA6
:100A8000E37040F0010070474FEA410C7FEA6C5C74
:100A900002D150EA013C07D14FEA430C7FEA6C5C7B
:100AA000D6D152EA033CD3D05DF8040B704700BFA7
:100AB0008446104662468C461946634600E000BFF5
:100AC00001B5FFF7B7FF002848BF10F1000F01BDC7
:100AD0004DF808EDFFF7F4FF0CBF012000205DF892
:100AE00008FB00BF4DF808EDFFF7EAFF34BF012017
:100AF00000205DF808FB00BF4DF808EDFFF7E0FFB0
:100B000094BF012000205DF808FB00BF4DF808ED00
:100B1000FFF7CEFF94BF012000205DF808FB00BF67
:100B20004DF808EDFFF7C4FF34BF012000205DF849
:100B300008FB00BF4FEA410C7FEA6C5C02D150EA2F
:100B4000013C0AD14FEA430C7FEA6C5C02D152EAC5
:100B5000033C02D14FF0000070474FF00100704796
:100B60004FEA410212F5001215D211D56FF47873D5
:100B7000B3EB625212D94FEAC12343F0004343EA78
:100B8000505311F0004F23FA02F018BF4042704753
:100B90004FF00000704750EA013005D111F00040DD
:100BA00008BF6FF0004070474FF00000704700BF73
:100BB0004A0011D212F5001211D20DD56FF47873DC
:100BC000B3EB62520ED44FEAC12343F0004343EA31
:100BD000505323FA02F070474FF00000704750EA7C
:100BE000013002D14FF0FF3070474FF000007047E6
:100BF0004FEA4102B2F1E04324BFB3F5001CDCF13F
:100C0000FE5C0DD901F0004C4FEAC0024CEA507076
:100C1000B2F1004F40EB830008BF20F001007047A5
:100C200011F0804F21D113F13872BCBF01F00040A8
:100C3000704741F480114FEA5252C2F11802C2F1DA
:100C4000200C10FA0CF320FA02F018BF40F001005B
:100C50004FEAC1234FEAD32303FA0CFC40EA0C000D
:100C600023FA02F34FEA4303CCE77FEA625307D14A
:100C700050EA01331EBF4FF0FE4040F44000704781
:100C800001F0004040F0FE4040F40000704700BF1B
:100C900053B94AB9002908BF00281CBF4FF0FF31E3
:100CA0004FF0FF3000F07AB9ADF1080C6DE904CED9
:100CB00000F006F8DDF804E0DDE9022304B0704737
:100CC0002DE9F0478C460D460446089E002B51D175
:100CD0008A4217466DD9B2FA82FEBEF1000F0BD0E0
:100CE000CEF1200C01FA0EF520FA0CFC02FA0EF7F8
:100CF0004CEA050C00FA0EF44FEA174A250CBCFB2F
:100D0000FAF81FFA87F90AFB18CC45EA0C4508FBEC
:100D100009F3AB420AD9ED1908F1FF3280F02381C3
:100D2000AB4240F22081A8F102083D44ED1AA4B282
:100D3000B5FBFAF00AFB105544EA054400FB09F93B
:100D4000A14509D9E41900F1FF3380F00A81A145DA
:100D500040F2078102383C44A4EB090440EA084011
:100D60000021002E61D024FA0EF400233460736059
:100D7000BDE8F0878B4207D9002E54D0002186E8C9
:100D800021000846BDE8F087B3FA83F1002940F05E
:100D90008E80AB4202D3824200F2FA80841A65EB65
:100DA00003050120AC46002E3FD086E81010BDE8B8
:100DB000F08712B90127B7FBF2F7B7FA87FEBEF149
:100DC000000F34D1EB1B3A0C1FFA87FC0121B3FB57
:100DD000F2F8250C02FB183345EA03450CFB08F337
:100DE000AB4207D9ED1908F1FF3002D2AB4200F255
:100DF000D1808046ED1AA3B2B5FBF2F002FB10558C
:100E000043EA05440CFB00FCA44507D9E41900F1B2
:100E1000FF3302D2A44500F2B8801846A4EB0C04BC
:100E200040EA08409DE731463046BDE8F087CEF104
:100E3000200405FA0EF307FA0EF720FA04F83A0C2C
:100E400025FA04F448EA0308B4FBF2F14FEA184526
:100E500002FB11441FFA87FC45EA044501FB0CF331
:100E6000AB4200FA0EF409D9ED1901F1FF3080F020
:100E70008A80AB4240F2878002393D44EB1A1FFA68
:100E800088F5B3FBF2F002FB103345EA034500FBA3
:100E90000CF3AB4207D9ED1900F1FF386FD2AB422A
:100EA0006DD902383D44EB1A40EA01418FE7C1F1A8
:100EB000200722FA07F88B4005FA01F448EA0303F9
:100EC00020FA07FE4FEA134CFD404EEA040EB5FB34
:100ED000FCF94FEA1E440CFB19551FFA83F844EA4B
:100EE000054509FB08F4AC4202FA01F200FA01FAE6
:100EF00008D9ED1809F1FF3043D2AC4241D9A9F12C
:100F000002091D442D1B1FFA8EFEB5FBFCF00CFBE5
:100F100010554EEA054400FB08F8A04507D9E4182F
:100F200000F1FF3529D2A04527D902381C4440EAF8
:100F30000940A4EB0804A0FB02894C45C6464D4677
:100F400015D312D056B1BAEB0E0364EB050404FAC4
:100F500007F7CB401F43CC40376074600021BDE8E9
:100F6000F0871846F8E69046E0E6C245EAD2B8EBCC
:100F7000020E69EB03050138E4E72846D7E740464F
:100F800091E78146BEE7014678E702383C4445E7F1
:100F9000084608E7A8F102083D442BE7704700BF68
:100FA00038B50E4A0E4B054618784FF47A73B3FBEA
:100FB000F0F31068B0FBF3F000F0A6FA044658B95D
:100FC0000F2D09D8024629464FF0FF3000F05CFA99
:100FD000044B20461D6038BD012038BD10000020A4
:100FE000000000200400002008B50B4B1A6842F4F2
:100FF00000721A601A6842F480621A601A6842F439
:1010000080721A60032000F02DFA0020FFF7C8FF5D
:1010100022F020F9002008BD003C0240034A044BA6
:1010200011681B780B441360704700BF180800203C
:1010300000000020014B1868704700BF180800200E
:1010400038B50446FFF7F6FF631C1CBF054B1B7841
:10105000054618BFE418FFF7EDFF401B8442FAD89D
:1010600038BD00BF0000002010B50446002800F085
:101070009980036C23B9436480F83C300AF0EEF9A0
:10108000236CDB0600F18C80236C23F4885323F05F
:10109000020343F002032364434B5A6822F44032B4
:1010A0005A605A6861680A435A60236821695A681D
:1010B00022F480725A605A6842EA01225A605A68E1
:1010C000A16822F040725A605A680A435A609A68CE
:1010D000E16822F400629A609A680A439A60334990
:1010E000A26A8A4250D0996821F07061996099682B
:1010F0000A439A609A68E16A22F040529A609A68BC
:101100000A439A609A68A16922F002029A609A687A
:1011100042EA41029A60226A002A3DD05A68616A16
:1011200042F400625A605A6822F460425A605A6877
:10113000013942EA41325A60DA6AE16922F4700206
:10114000DA62DA6A013942EA0152DA629A68216B9C
:1011500022F400729A609A6842EA41229A609A6880
:10116000616922F480629A609A68002042EA8122D2
:101170009A606064236C23F0030343F0010323644B
:10118000002384F83C3010BD9A6822F070629A60A7
:101190009A6822F04052B4E75A6822F40062CAE723
:1011A0000120EDE7012010BD002301400100000FE8
:1011B00037B513460022019290F83C20012A0446DC
:1011C00065D00568012280F83C20AA68D20705D5C1
:1011D000AA68D00715D4002003B030BDAA6842F039
:1011E0000102AA602B4A10682B4AB0FBF2F000EB18
:1011F00040000190019A002AEAD0019A013A019236
:10120000F8E7206C20F4E06020F0010040F48070EA
:1012100020646A68520541BF206C20F4405040F4BD
:1012200080502064226CA06B12F480521CBF626C50
:1012300022F006026264002284F83C20174AC2634E
:10124000174A0264174AC2646FF022022A606A6871
:1012500042F080626A60AA6842F48072AA600A461C
:1012600005F14C0100F0FAF90F4B5B6813F01F0F0A
:10127000236808D1986810F04050ACD19A6842F0C9
:1012800080429A60A8E7094A9342A4D1F2E702207B
:10129000A2E700BF1000002040420F00B11200087A
:1012A000131300081F130008002301400020014011
:1012B000836B1A6C12F0500F10B524D11A6C42F4E3
:1012C00000721A641A68916811F0405F17D1996929
:1012D000A9B9D16A11F4700F02D0916849050ED4F2
:1012E000516821F0200151601A6C22F480721A6456
:1012F0001A6CD2045EBF1A6C42F001021A641846DE
:1013000017F0E6FD10BD9B6BBDE81040DB6C184785
:10131000704708B5806BFFF7FBFF08BD7047806B17
:1013200008B540230364436C43F004034364FFF7B0
:10133000F5FF08BDF7B50023019390F83C30012B71
:101340006AD00D6804688A680123092D80F83C3052
:10135000AEB22AD906EB4603E7681E3B4FF0070EF4
:101360000EFA03FE27EA0E07E760E76802FA03F3C6
:101370003B43E3604A68062A4FEA820325D81344B8
:10138000676B591F1F238B4027EA03036363626B5C
:1013900006FA01F1114361632D4B9C4234D00023C6
:1013A00080F83C30184603B0F0BD276905EB4503D3
:1013B0004FF0070E0EFA03FE27EA0E072761276992
:1013C00002FA03F33B432361D4E70C2A0ED81344FB
:1013D000216BA3F123021F23934021EA030323631C
:1013E000236B06FA02F21A432263D5E71344E16A3B
:1013F000413B1F229A4021EA0202E262E26A06FAB7
:1014000003F11143E162C7E7122D07D1114A536876
:1014100043F480035360C2E70220C4E70E4B9D42B1
:1014200001D0112DBBD10B494A689D4242F4000204
:101430004A60B4D1094B0A4A1B68B3FBF2F20A2393
:1014400053430193019B002BA9D0019B013BF8E77B
:101450000020014000230140120000101000002075
:1014600040420F00074AD36823F4E0631B041B0CBF
:1014700043F0BF63000243F4003300F4E060034331
:10148000D360704700ED00E0174B30B5DC68C4F363
:101490000224C4F10703251D042B28BF0423062DB5
:1014A0004FF0010505FA03F303F1FF338CBF033C52
:1014B00000241940A14005FA04F4013C2240002810
:1014C00042EA01024FEA0212AFBF00F1604000F0B1
:1014D0000F00064BD2B2A5BF00F56140D2B21A543C
:1014E00080F8002330BD00BF00ED00E014ED00E007
:1014F0004209012300F01F0003FA00F0014B43F8FA
:101500002200704700E100E00138B0F1807F0AD28C
:10151000064B074A5860F02182F82310002007226A
:1015200098601A6070470120704700BF10E000E02B
:1015300000ED00E00368DAB223F47F7323F00303C5
:101540001821103AB2FBF1F20449032A88BF043390
:10155000895C8365C165806D704700BF709E02081D
:1015600070B50446FFF766FD0546002C71D00023D8
:1015700084F834302268022384F83530136823F06D
:101580000103136021680B68D8073CD40B68324D07
:101590006268A0691D40A3681343E268134322698F
:1015A000134362691343E26903431343226A1343FB
:1015B000626A042A43EA050301BF266BE56A3543E4
:1015C0002B430B604B69042A23F0070343EA020311
:1015D0000BD1A26AE56A13433DB1F8B9012A2DD0B7
:1015E00001D3022A01D1EA012BD44B612046FFF737
:1015F000A1FFE26D3F2393408360002001236065DB
:1016000084F8353070BDFFF715FD401B0528B9D9AA
:1016100020236365032084F8350070BDB0F5005FBA
:1016200013D1032AE1D801A050F822F04316000894
:10163000E7150008431600083D160008B5F1C07F05
:10164000D3D1402363650120E5E7022AF9D9032AB3
:10165000C8E7012070BD00BF3F8010F070B590F862
:101660003440012C36D0012480F8344090F83540C5
:10167000866D012C4FF000054FF0020428D180F850
:10168000354004684565256825F48025256063603C
:101690008368402B0EBFA260A160E260C26D08BFEC
:1016A000E1603F239340B360236843F01603236057
:1016B000636943F080036361036C1BB1236843F0EB
:1016C00008032360236843F001032360002070BDFA
:1016D00080F83450022070BD90F83530022B03D0D2
:1016E00080234365012070470268052380F8353068
:1016F000136823F00103136000207047F7B500233F
:1017000001935A4B856D1F68C36D2E6808229A405D
:10171000164204460CD001680868400708D50868DE
:1017200020F004000860AA60626D42F00102626568
:1017300001229A40164208D021684969090641BF32
:10174000AA60626D42F00202626504229A4016426B
:1017500008D021680968880741BFAA60626D42F01D
:101760000402626510229A40164210D0236819685C
:1017700009070CD5AA601A68500335D51B681903F0
:1017800001D4236C00E0A36C0BB120469847E16DB7
:1017900020228A40164238D023681868C60634D5FD
:1017A000AA6094F83520052A1A6825D122F016027D
:1017B0001A605A6922F080025A61226C0AB9A26C3E
:1017C0001AB11A6822F008021A603F238B40AB60FE
:1017D000002384F83430012384F83530236D0BB1B5
:1017E0002046984703B0F0BD1A68D2055EBF1A685C
:1017F00022F008021A60C4E7500328D51B681903B9
:1018000032D4636C0BB120469847636D002BE9D04E
:10181000636DDA0719D50523226884F8353013681B
:1018200023F0010313604FF41653B7FBF3F7019B4A
:1018300001339F42019302D31368DB07F7D40023DF
:1018400084F83430012384F83530E36CC7E71A6834
:1018500012F4807208D1196821F010011960012377
:1018600084F8342084F83530E36BCBE71000002097
:101870002DE9F04F85B00B68DFF89C81644A019335
:101880004FF001090023019C09FA03F707EA040657
:10189000B74240F0AD804C6824F0100ABAF1020F54
:1018A00016D14FEAD30C00EB8C0C03F0070BDCF8DD
:1018B00020504FEA8B0B4FF00F0E0EFA0BFE25EA6D
:1018C0000E0E0D6905FA0BF545EA0E05CCF8205011
:1018D0004FEA430C0325D0F800B005FA0CF5ED43B0
:1018E00004F0030E0BEA050B0EFA0CFE0AF1FF3AA8
:1018F0004EEA0B0EBAF1010F0095C0F800E015D8C2
:10190000D0F808E005EA0E0ECD6805FA0CFA4AEAAE
:101910000E0EC0F808E0D0F804E02EEA0707C4F382
:10192000001E0EFA03FE4EEA07074760C768009DD7
:101930003D408F6807FA0CF73D43C560E50057D579
:101940004FF0000BCDF80CB0D8F84470314D47F48F
:101950008047C8F84470D8F8447007F4804703976C
:10196000039F23F0030707F1804707F59C3703F037
:10197000030CD7F808A04FEA8C0C4FF00F0E0EFAAC
:101980000CFEA8422AEA0E0E39D005F58065A84261
:1019900037D005F58065A84235D005F58065A842A9
:1019A00033D005F58065A84214BF0725042505FA44
:1019B0000CF545EA0E05BD601568F74314F4803F49
:1019C0000CBF3D4035431560556814F4003F0CBF13
:1019D0003D4035435560956814F4801F0CBF3D4071
:1019E00035439560D568A40254BF3D403543D5606A
:1019F0000133102B7FF447AF05B0BDE8F08F5D4693
:101A0000D5E70125D3E70225D1E70325CFE700BFBE
:101A1000003C0140000002400038024003691942C6
:101A200014BF0120002070470AB18161704709048A
:101A3000FBE700002DE9F341044618B9012002B08C
:101A4000BDE8F0810368DD0710D42368980758D4F7
:101A500023681A0700F19A8023685B0700F1B880B9
:101A6000A269002A40F019810020E8E7A64B9A6895
:101A700002F00C02042A07D09A6802F00C02082A2D
:101A80000AD15B68590207D59F4B1B689A03DCD5C6
:101A90006368002BD9D1D1E763689B4DB3F5803FD4
:101AA00011D12B6843F480332B60FFF7C3FA964DB6
:101AB00006462B689B03C8D4FFF7BCFA801B64283A
:101AC000F7D90320BBE7B3F5A02F04D12B6843F46B
:101AD00080232B60E5E72A6822F480322A602A6896
:101AE00022F480222A60002BDFD1FFF7A3FA0646FA
:101AF0002B689F03A9D5FFF79DFA801B6428F7D9AF
:101B0000DFE7814B9A6812F00C0F07D09A6802F059
:101B10000C02082A11D15B685E020ED47A4B1A6857
:101B2000950702D5E268012A88D11A68216922F056
:101B3000F80242EAC1021A608AE7E268734BB2B166
:101B400001221A60FFF776FA6F4D06462B68980758
:101B500007D52B68226923F0F80343EAC2032B6000
:101B600076E7FFF767FA801B0228EFD9A9E71A602A
:101B7000FFF760FA644D06462B6899077FF568AF5A
:101B8000FFF758FA801B0228F6D99AE76269604B82
:101B90007AB101221A60FFF74DFA5B4D06466B6F72
:101BA0009F073FF559AFFFF745FA801B0228F6D98A
:101BB00087E71A60FFF73EFA534D06466B6F9807AA
:101BC0007FF54AAFFFF736FA801B0228F6D978E78F
:101BD0004D4B1A6C12F0805228D101921A6C42F0CF
:101BE00080521A641B6C03F080530193019B012601
:101BF000484D2B68D9051BD5A368434D012B27D130
:101C00002B6F43F001032B67FFF714FA3E4D074695
:101C100041F288382B6F9B0739D5002E3FF420AF57
:101C2000394A136C23F08053136419E70026DFE769
:101C30002B6843F480732B60FFF7FCF907462B6891
:101C4000DA05D9D4FFF7F6F9C01B0228F7D938E72F
:101C5000052B04D12B6F43F004032B67D0E72A6FC9
:101C600022F001022A672A6F22F004022A67002B61
:101C7000CAD1FFF7DFF941F2883807462B6F980782
:101C8000CBD5FFF7D7F9C01B4045F7D919E7FFF7C8
:101C9000D1F9C01B4045BDD913E71B4DAB6803F01C
:101CA0000C03082B3FF4CAAE1B4E0023022A3360FC
:101CB00034D1FFF7BFF907462B6899011ED4226A79
:101CC000E3691343626A43EA8213E26A43EA026306
:101CD000A26A0D4C5208013A43EA02436B600123A9
:101CE0003360FFF7A7F9054623689A013FF5BCAEBC
:101CF000FFF7A0F9401B0228F6D9E2E6FFF79AF9B0
:101D0000C01B0228D8D9DCE6003802400000474258
:101D1000800E47420070004060004742FFF78AF99A
:101D200004462B689B017FF59FAEFFF783F9001BEC
:101D30000228F6D9C5E600BF134908B58B6803F041
:101D40000C03042B03D0082B03D0104808BD104807
:101D500008BD4A684B68496813F4800314BF0C48F7
:101D60000A48C1F3881118BF002302F03F02A1FB0B
:101D70000001FEF78DFF044B5B68C3F301430133A1
:101D80005B00B0FBF3F008BD003802400024F40013
:101D900040787D012DE9F0410D46044610B901203F
:101DA000BDE8F081444B1A6802F00F028A4228D342
:101DB00021688F072DD4C80740D43F4B1A6802F022
:101DC0000F02954266D3226851076CD4130707D5DA
:101DD0003A4A2169936823F4604343EAC10393605C
:101DE000FFF7AAFF354B364A9B68C3F30313D35C56
:101DF000D840344B18600020FFF7D2F80020BDE82F
:101E0000F081CAB21A701B6803F00F039942C6D161
:101E1000CEE72A4B11F0040F1EBF9A6842F4E0523D
:101E20009A600E0742BF9A6842F460429A609A68CC
:101E3000A06822F0F00202439A60BCE762681F4B80
:101E4000012A1DD11B6813F4003FA8D01B4EB368B4
:101E500023F003031343B360FFF7ECF841F2883833
:101E60000746B368626803F00C03B3EB820FA4D09B
:101E7000FFF7E0F8C01B4045F3D90320BDE8F0812F
:101E8000911E01291B6802D813F0007FDDE713F0D3
:101E9000020FDAE7EAB21A701B6803F00F039D42E3
:101EA0007FF47DAF8FE70549E0688B6823F4E0534A
:101EB00003438B608AE700BF003C024000380240C9
:101EC0009EB5020810000020044B054A9B68C3F32E
:101ED0008223D35C034A1068D84070470038024020
:101EE000AEB5020810000020044B054A9B68C3F3FE
:101EF0004233D35C034A1068D84070470038024030
:101F0000AEB50208100000202DE9F041069E0446FF
:101F1000884617461D462268936838EA03030CBFBB
:101F2000012300239F4202D10020BDE8F0816B1CF9
:101F3000F2D055BB23685A6822F0E0025A6062680A
:101F4000B2F5827F0AD1A268B2F5004F02D0B2F595
:101F5000806F03D11A6822F040021A60A26AB2F5BB
:101F6000005F09D11A6822F400521204120C1A60A0
:101F70001A6842F400521A60012384F85130002399
:101F800084F850300320BDE8F081FFF753F8801B40
:101F90008542C0D8CEE713B50B46009280210022BF
:101FA0000446FFF7B1FF20B1636D43F02003636582
:101FB000032002B010BD10B50446002836D000231F
:101FC000836290F8513003F0FF021BB980F8502073
:101FD00021F0E6F82168A068A269022384F8513054
:101FE0000B6823F040030B6063680343E06803431E
:101FF0002069034360690343E0690343206A0343A4
:10200000A06A034302F4007003430B60120C636A7E
:1020100002F004021A434A60CB6923F40063CB61E7
:1020200000200123606584F8513010BD012010BDEF
:102030002DE9FF411E4690F85030012B04460D4615
:10204000904600F09C80012380F85030FEF7F2FFAC
:10205000074694F85100C0B2012840F08E80002D50
:102060004ED0B8F1000F4BD0032384F85130002339
:102070006365A363A4F83680A387E387636423645E
:10208000A3682563B3F5004F2368A4F8348002BF2A
:102090001A6842F480421A601A6852065EBF1A68D3
:1020A00042F040021A60E268B2F5006F626838D10F
:1020B0001AB1E28E92B2012A06D135F8022BDA600B
:1020C000E38E013B9BB2E386E38E9BB293B900970C
:1020D0003346012202212046FFF716FF78B93A461F
:1020E00031462046FFF757FF002838D0202363658C
:1020F000012005E023689A689007DED44EB90320DA
:10210000012384F85130002384F8503004B0BDE836
:10211000F081711CD8D0FEF78DFFC01B8642D3D84A
:10212000EDE71AB1E28E92B2012A06D115F8012B21
:102130001A73E38E013B9BB2E386E38E9BB2002BC6
:10214000C5D023689A689207F0D4002ED7D0731CAC
:10215000F3D0FEF76FFFC01B8642EED8CFE7A3682F
:1021600033B903932368DA6803929B680393039B54
:10217000606D003018BF0120C2E70220C0E70220D6
:10218000C4E72DE9F043994690F8503085B0012B13
:1021900004460D4616460C9F00F0ED80012380F8A2
:1021A0005030FEF747FF94F851306168DBB2012BE5
:1021B00080460AD0B1F5827F40F0DB80A268002A19
:1021C00040F0D780042B40F0D480002D4ED0002E5C
:1021D0004CD0B9F1000F49D094F85130A663012BCF
:1021E00004BF052384F851300023636523646364CE
:1021F0002368A4F83E90A4F836901A68A4F83C909E
:10220000500658BF1A68256358BF42F04002A4F830
:10221000349058BF1A60E268B2F5006F5DD119B111
:10222000E28E92B2012A06D135F8022BDA60E38EF3
:10223000013B9BB2E3864FF00109E38E9BB2BBB931
:10224000E38F9BB2A3B9CDF800803B460122022167
:102250002046FFF759FE002835D142463946204630
:10226000FFF799FE002879D02023636501202BE039
:10227000B9F1000F0FD0E38E9BB263B123689A6867
:10228000910708D535F8022BDA60E38E013B9BB24B
:10229000E3864FF00009E38F9BB263B123689A682D
:1022A000D20708D5DB6826F8023BE38F013B9BB2DF
:1022B000E3874FF00109781CBFD0FEF7BBFEA0EB0F
:1022C00008008742B9D80320012384F85130002345
:1022D00084F8503005B0BDE8F08319B1E28E92B2B7
:1022E000012A06D115F8012B1A73E38E013B9BB22C
:1022F000E3864FF00109E38E9BB21BB9E38F9BB2DB
:10230000002BA0D0B9F1000F0FD0E38E9BB263B1C8
:1023100023689A68910708D52A781A73E38E013BDF
:102320009BB2E38601354FF00009E38F9BB263B1A6
:1023300023689A68D20708D5DB683370E38F013BC6
:102340009BB2E38701364FF001097B1CD3D0FEF727
:1023500071FEA0EB08008742CDD8B4E7A368002B3C
:10236000B2D123680390DA6803929B680393039BBE
:10237000AAE70220A8E70220ACE72DE9F3411E46B8
:102380004368B3F5827F04460D4690460CD18368BE
:1023900053B9042380F85130134600960A46FFF7DC
:1023A000F0FE02B0BDE8F08194F85030012B00F04F
:1023B0008180012384F85030FEF73CFE074694F8F4
:1023C0005100C0B2012873D1002D58D0B8F1000FD0
:1023D00055D0042384F85130002363652363A4F8A7
:1023E0003E80A386E38623646364A368A563B3F594
:1023F000004F2368A4F83C8002BF1A6822F4804290
:102400001A601A6852065EBF1A6842F040021A60EB
:10241000E368CBB1E38F9BB2D3B123689A68D2074C
:102420003CD5DB6825F8023BE38F013B9BB2E38799
:10243000F0E723689A68D0071FD51B7B05F8013B9E
:10244000E38F013B9BB2E387E38F9BB2002BF0D17C
:102450006368B3F5827F0BD1A368B3F5004F02D058
:10246000B3F5806F04D12268136823F04003136032
:10247000606D003018BF012001E03EB90320012348
:1024800084F85130002384F850308AE7711CDBD087
:10249000FEF7D0FDC01B8642D6D8EFE7002EEDD068
:1024A000731CB7D0FEF7C6FDC01B8642B2D8E5E765
:1024B0000220E4E7022074E7036A23F001030362C9
:1024C000036A70B5446882690D6822F073022A437A
:1024D0008D6823F002032B430A4DA8420BD1CD682F
:1024E0008E6923F008032B434D6924F4407435436F
:1024F00023F004032C43446082614A684263036210
:1025000070BD00BF00000140036A23F480730362C2
:10251000036A70B54468C2690D6822F073022A43E9
:102520008D6823F4007343EA05230B4DA8420DD1B7
:10253000CD688E6923F4006343EA05234D6924F4D2
:102540004054354323F4806344EA05144460C26177
:102550004A68C263036270BD00000140036A23F44D
:1025600080530362036A30B54468C2690D6822F47F
:10257000E64242EA05228D6823F4005343EA05331C
:10258000064DA84202BF4D6924F4804444EA8514F4
:102590004460C2614A680264036230BD00000140C9
:1025A0000368DA6842F00102DA601A6842F0010258
:1025B0001A60002070470368DA6822F00102DA60CE
:1025C000196A41F21112114208D1196A40F24442CB
:1025D000114202BF1A6822F001021A6000207047FF
:1025E000704790F83830012B70B54FF002031CD0C3
:1025F00080F839300368012280F838209A6822F484
:102600007F4222F077029A600A68402A79D019D86E
:10261000102A00F093800AD8002A00F08980012354
:1026200080F83930002380F83830184670BD202AF1
:1026300000F08A80302AF2D19A6822F0700242F0CB
:10264000370236E0702A36D01BD8502A42D0602A92
:10265000E5D11C6A4D68CE6824F010041C629969AB
:102660001A6A21F4704122F0A00242EA051241EAFE
:10267000063199611A629A6822F0700242F067028C
:1026800017E0B2F5805F11D0B2F5005FC7D18A685C
:102690004D689C68C9682A4324F47F4442EA0122B9
:1026A00022439A609A6842F4804202E09A6822F0DB
:1026B00007029A60B3E78A684D689C68C9682A4334
:1026C00024F47F4442EA012222439A609A6842F04D
:1026D0007702EEE74C68CE68196A1D6A25F001059D
:1026E0001D629A6921F00A0122F0F00242EA061204
:1026F00021439A6119629A6822F0700242F05702EF
:10270000D7E74C68CE68196A1D6A25F001051D627D
:102710009A6921F00A0122F0F00242EA06122143EE
:102720009A6119629A6822F0700242F04702C0E78B
:102730009A6822F0700242F00702BAE79A6822F023
:10274000700242F01702B4E79A6822F0700242F079
:102750002702AEE7704770477047704770470368BD
:102760001A69910710B504460ED5DA6892070BD5A1
:102770006FF002021A619B6901229B07027677D0F3
:10278000FFF7EAFF0023237623681A69500710D564
:10279000DA6851070DD56FF004021A619B690222B5
:1027A00013F4407F2276204668D0FFF7D5FF002340
:1027B000237623681A6912070FD5DA6810070CD53B
:1027C0006FF008021A61DB6904229907227620461D
:1027D0005AD0FFF7C1FF0023237623681A69D20677
:1027E00010D5DA68D0060DD56FF010021A61DB69DA
:1027F000082213F4407F227620464BD0FFF7ACFF2F
:102800000023237623681A69D10708D5DA68D2072E
:1028100005D56FF001021A612046FFF79BFF236880
:102820001A69100608D5DA68110605D56FF080021E
:102830001A61204600F089F923681A69520608D502
:10284000DA68500605D56FF040021A612046FFF79E
:1028500085FF23681A69910622D5DA6892061FD58A
:102860006FF0200220461A61BDE8104000F06CB9FC
:10287000FFF771FF2046FFF770FF83E7FFF76BFF5D
:102880002046FFF76AFF92E7FFF765FF2046FFF754
:1028900064FFA0E7FFF75FFF2046FFF75EFFAFE7AB
:1028A00010BD0000224A036890420ED0B0F1804F64
:1028B0000BD0A2F57C42904207D002F58062904294
:1028C00003D002F58062904219D14A6823F0700368
:1028D0001343174A904204D1CA6823F44073134348
:1028E00018E0B0F1804FF7D0124A9042F4D002F5D0
:1028F00080629042F0D002F580629042ECD00E4AA5
:102900009042E9D002F580629042E5D002F5806203
:102910009042E1D003608B68C3620B688362044B12
:10292000984204BF0B69036301234361704700BFF2
:1029300000000140000400400040014010B5044682
:10294000A0B190F8393003F0FF021BB980F83820AD
:1029500020F0C6FD022384F839302068211DFFF7DE
:10296000A1FF012384F83930002010BD012010BDE3
:1029700010B50446A0B190F8393003F0FF021BB93E
:1029800080F83820FFF72CFE022384F839302068C5
:10299000211DFFF787FF012384F83930002010BD87
:1029A000012010BD036A23F010030362036A70B5AF
:1029B000446882690D6822F4E64242EA05228D6885
:1029C00023F0200343EA05130B4DA8420DD1CD6837
:1029D0008E6923F0800343EA05134D6924F44064B3
:1029E000354323F0400344EA8504446082614A6829
:1029F0008263036270BD00BF0000014038B590F8EB
:102A00003830012B04464FF0020025D0012384F812
:102A1000383084F839000C2A18D8DFE802F007179C
:102A200017171E1717172F17171740002068FFF7E3
:102A300043FD236809699A6942F008029A619A691C
:102A400022F004029A619A690A439A6101230020E4
:102A500084F8393084F8380038BD2068FFF7A2FFC9
:102A6000236809699A6942F400629A619A6922F4BA
:102A700080629A619A6942EA0122E6E72068FFF7DC
:102A800043FD23680969DA6942F00802DA61DA690C
:102A900022F00402DA61DA690A43DA61D6E72068D3
:102AA000FFF75CFD23680969DA6942F40062DA61C4
:102AB000DA6922F48062DA61DA6942EA0122ECE73B
:102AC000036A10B501248C4023EA04030362036AFD
:102AD0008A401A43026210BD10B504460122006804
:102AE000FFF7EEFF2368064A934202BF5A6C42F496
:102AF00000425A641A6842F001021A60002010BDB8
:102B00000000014090F83830012B10B54FF002035F
:102B100018D080F8393003680C685A68496822F088
:102B200070025A605A6822435A609A6822F0800202
:102B30009A609A680A439A60012380F8393000232A
:102B400080F83830184610BD704770470368DA685F
:102B500022F49072DA605A6922F001025A6120234D
:102B600080F83A30704700002DE9F0470668C268E7
:102B70003369C16923F440531343336104468368C6
:102B80000069F2680343606922F41642034322F0AD
:102B90000C020B431343F3607369A26923F440737F
:102BA0001343B1F5004F73617A4B7CD19E4203D041
:102BB00003F580639E4244D1FFF796F9192505FB82
:102BC00000F360684FF064094000B3FBF0F3B3FB1F
:102BD000F9F34FEA0318FFF787F9636868435B006E
:102BE000B0FBF3F7FFF780F9636868435B00B0FB65
:102BF000F3F3B3FBF9F309FB1373DB003233B3FBDD
:102C0000F9F35B0003F4F877FFF76EF96268684345
:102C10005200B0FBF2FAFFF767F9636868435B00A4
:102C2000B0FBF3F3B3FBF9F309FB13A3DB0032337F
:102C3000B3FBF9F303F0070343443B44B360BDE83F
:102C4000F087FFF741F9192505FB00F360684FF0A5
:102C500064094000B3FBF0F3B3FBF9F34FEA031848
:102C6000FFF732F9636868435B00B0FBF3F7FFF7E7
:102C70002BF9636868435B00B0FBF3F3B3FBF9F334
:102C800009FB1373DB003233B3FBF9F35B0003F48E
:102C9000F877FFF719F9626868435200B0FBF2FA5F
:102CA000FFF712F9B9E79E4202D03B4B9E4240D15A
:102CB000FFF71AF9676819254FF0640905FB00F35F
:102CC000BF00B3FBF7F3B3FBF9F31F01FFF70CF9F8
:102CD000636868439B00B0FBF3F8FFF705F963688E
:102CE00068439B00B0FBF3F3B3FBF9F309FB1383D9
:102CF0001B013233B3FBF9F303F0F008FFF7F4F8EC
:102D0000626868439200B0FBF2FAFFF7EDF863687F
:102D100068439B00B0FBF3F3B3FBF9F309FB13A388
:102D20001B013233B3FBF9F303F00F0343EA08034B
:102D300083E7FFF7C9F8676819254FF0640905FBB9
:102D400000F3BF00B3FBF7F3B3FBF9F31F01FFF789
:102D5000BBF8636868439B00B0FBF3F8FFF7B4F877
:102D6000636868439B00B0FBF3F3B3FBF9F309FB23
:102D700013831B013233B3FBF9F303F0F008FFF7C1
:102D8000A3F8626868439200B0FBF2FAFFF79CF880
:102D9000BDE700BF0010014000140140F8B5044633
:102DA0000E4617461D4621680B6836EA030301D11B
:102DB0000020F8BD6B1CF7D095B92368DA6822F4BF
:102DC000D072DA605A6922F001025A61202384F835
:102DD000393084F83A30002384F838300320F8BDC5
:102DE000FEF728F9C01B8542DDD2E6E710B50446A0
:102DF00040B390F8393003F0FF021BB980F8382057
:102E000020F0E0FC2268242384F83930D36823F4CE
:102E10000053D3602046FFF7A7FE23681A6922F407
:102E200090421A615A6922F02A025A61DA6842F421
:102E30000052DA6000202023E06384F8393084F8FF
:102E40003A3010BD012010BD2DE9F0411F4690F829
:102E50003930202B04460D4690464FD100294AD0E8
:102E6000002A48D090F83830012B47D0012380F851
:102E700038300023C363212380F83930FEF7DAF8B5
:102E8000A4F824800646A4F82680E38C9BB26BB994
:102E90003B46324640212046FFF780FFB0B9202351
:102EA00084F8393084F83800BDE8F081E38C013BC8
:102EB0009BB2E384A368B3F5805F32463B464FF094
:102EC000800120460ED1FFF769FF10B10320BDE855
:102ED000F0812B882268C3F308035360236943B948
:102EE0000235D2E7FFF75AFF0028EFD123682A788E
:102EF0005A600135C9E70120BDE8F0810220BDE834
:102F0000F0812DE9F0411F4690F83A30202B04461D
:102F10000D46904652D100294DD0002A4BD090F852
:102F20003830012B4AD0012380F838300023C363A6
:102F3000222380F83A30FEF77DF8A4F82C8006466C
:102F4000A4F82E80E08D80B230B9202384F83A3086
:102F500084F83800BDE8F081E38D013B9BB2E38546
:102F6000A368B3F5805F32463B464FF02001204610
:102F700012D1FFF713FF10B10320BDE8F0812368E1
:102F800022695B6822B9C3F3080325F8023BD9E73D
:102F9000DBB225F8013BD5E7FFF700FF0028EBD1B6
:102FA000236821695B686A1C11B92B701546C9E753
:102FB00003F07F03F9E70120BDE8F0810220BDE8BE
:102FC000F0817047704790F83A30222B10B532D11B
:102FD000836801690268B3F5805F836A1FD1526814
:102FE000C9B9C2F3080223F8022B8362C48D013CE5
:102FF000A4B2C4856CB90368DA6822F49072DA600E
:103000005A6922F001025A61202380F83A30FFF712
:10301000D9FF002010BDD2B223F8012BE5E721B97A
:10302000591C526881621A70E0E75268591C81622B
:1030300002F07F02F7E7022010BD704703681A68AC
:10304000D96870B5160704465D6907D196065AD54A
:103050008D0658D5BDE87040FFF7B5BF15F00105E6
:1030600002D111F4907F4ED0D30705D5CE0542BFD3
:10307000E36B43F00103E363500704D51DB1E36B39
:1030800043F00203E363930704D51DB1E36B43F000
:103090000403E363160704D51DB1E36B43F0080393
:1030A000E363E36B002B66D0950604D5880602D552
:1030B0002046FFF788FF23685D69E26B1107204611
:1030C00002D415F040051AD0FFF740FD23685A6975
:1030D000520610D55A69606B22F040025A6150B115
:1030E000254B0365FEF7F8FA002844D0606BBDE875
:1030F0007040036D18472046FFF79FFF70BDFFF734
:103100009CFFE56370BD160627D50D0625D594F8FE
:103110003920212A2FD1A268B2F5805F226A17D107
:103120001188C1F308015960216979B9023222621C
:10313000E28C013A92B2E284EAB9DA6822F08002C3
:10314000DA60DA6842F04002DA6070BD0132EEE720
:10315000511C216212785A60EAE750060BD54A06E4
:1031600009D5DA6822F04002DA60202384F8393089
:103170002046FFF726FF70BD7D31000808B5806B43
:103180000023C385C384FFF758FF08BDF0B510487E
:10319000104F114E114D002100238A00BC1801313F
:1031A0002360B4180529236005EB02040244236060
:1031B0001360F2D10A4A13600A4A13600A4A136084
:1031C0000A4A13600A4A13600A4A1360F0BD00BF3E
:1031D00020020020A002002064020020380200200B
:1031E000980200205C020020340200201C02002013
:1031F0009C020020600200202DE9F0472DED028B9B
:10320000B14B1B78012B84B040F08E87AF4F3B68E9
:10321000112B00F23083DFE813F012002E0321009F
:103220002E032E03BA012E03C6012E032E032D06F4
:103230002E033A062E032E03BB062E030907002297
:103240008021A348FEF7F0FBA24B9A88A24B802175
:103250001A8001229E48FEF7E7FB0CE39D4B9F4C32
:103260009B889B48238000228021FEF7DDFB9A4A41
:10327000238812889A4D9B4E9B4C9FED9C8A9B1AEB
:1032800007EE903AF8EEE77A994BC5ED007A32688E
:103290001A6095ED007AF7EE007AB4EEE77AF1EE77
:1032A00010FA9A46C0F2F780D4F82401FDF754F9D9
:1032B000804628688946FDF74FF941EC100B24F051
:1032C000D7FC404653EC102B4946FDF7C3FA804625
:1032D000D4F828018946FDF73FF902460B464046DF
:1032E0004946FCF7D9FFFDF783FC3060D6ED007A44
:1032F000804B8149F4EEC87AF1EE10FAC8BF86ED32
:10330000008A1A680A607D4AD06810619068D060AF
:10331000506890601068506030681060D2ED007A9C
:10332000D2ED015A92ED026AD2ED036A92ED047A6F
:10333000734A77EEA57A0E4677EE867A714977EE74
:10334000A67AF1EE046A77EE877A87EEA67A83EDA5
:10335000007AD06810619068D06050689060106802
:1033600050601868106092ED007A92ED036AD2ED19
:10337000017AD2ED026A644A644837EE467A77EE03
:10338000E67AF0EE086AE7EE267A94ED177AC2ED57
:10339000007ADAED007AB4EEE77AF1EE10FAC8BFFF
:1033A0000A8894ED007AC6BF013292B200220A80E8
:1033B000D3ED007A564AB4EEE77AF1EE10FAC2BFC6
:1033C00001210180116894ED127AD6BF00210131EC
:1033D00001801160D3ED007AB4EEE77AF1EE10FAD5
:1033E0004FF000015ADDD3ED007A96ED007A77EECA
:1033F000C77A94ED297AF0EEE77AF4EEC77AF1EE27
:1034000010FA4BD8434A1170D3ED007AD6ED006A1A
:1034100094ED297ADFF810E13F484049404A77EEC1
:10342000E67AF4EEC77AF1EE10FA39DDDEF80060E4
:10343000012E3C4E44D1DFF8F4E0DEF800C0BCF1D0
:10344000000F04D0DEF800E0BEF10C0F38D14FF0D1
:10345000010E86F800E0D4ED047AD4ED2A6A93EDEB
:10346000007A77EEE67AF4EEC77AF1EE10FA40F3DE
:10347000FD8193ED007AD4ED087A77EEC77AC0ED3E
:10348000007A95ED007AD4ED5B7A77EEC77A012366
:10349000C1ED007AEEE186ED008A27E7214AB2E726
:1034A000D6ED007AD3ED006ADEF8006077EEE67ABA
:1034B000B4EEE77AF1EE10FA3AD5012E154EB9E7DF
:1034C0004FF0000EC5E700BF640300203004002069
:1034D00000000240B0050020FE030020FC03002095
:1034E00024060020280600205C0800200000164367
:1034F000CC050020980200209C020020A0020020A1
:10350000B4020020DE0300209402002052060020B6
:1035100048040020E9030020D8020020C80200204F
:10352000D4020020E8030020EC0300200C0000205F
:10353000012E25D1DFF828E39EF80060F6B2012EB7
:103540001ED1D3ED007A94ED067AB4EEE77AF1EE6F
:1035500010FA40F38B8193ED007AD4ED087A77EE80
:10356000C77AC0ED007A95ED007AD4ED5B7A77EEFC
:10357000C77A0023C1ED007A16608EF800307AE138
:10358000D3ED007A94ED047AB4EEE77A6DE7002289
:1035900020219D48FEF748FA9C4BDA889C4B20215D
:1035A0001A80012256E6994B9A4CDB889648238074
:1035B00000222021FEF738FA954A23881288964D7A
:1035C000964E974C9FED978A9B1A07EE903AF8EE2D
:1035D000E77A954BC5ED007A32681A6095ED007A6E
:1035E000F7EE007AB4EEE77AF1EE10FA9A46C0F2FE
:1035F000F180D4F82C01FCF7AFFF8046286889469B
:10360000FCF7AAFF41EC100B24F032FB404653ECD0
:10361000102B4946FDF71EF98046D4F83001894643
:10362000FCF79AFF02460B4640464946FCF734FE3B
:10363000FDF7DEFA3060D6ED007A7C4B7C49F4EE83
:10364000C87AF1EE10FAC8BF86ED008A1A680A60DF
:10365000784AD06810619068D060506890601068B7
:10366000506030681060D2ED007AD2ED015A92EDD0
:10367000026AD2ED036A92ED047A6F4A77EEA57A78
:103680000E4677EE867A6D4977EEA67AF1EE046AF9
:1036900077EE877A87EEA67A83ED007AD06810619C
:1036A0009068D06050689060106850601868106032
:1036B00092ED007A92ED036AD2ED017AD2ED026AC0
:1036C0005F4A604837EE467A77EEE67AF0EE086AAF
:1036D000E7EE267A94ED187AC2ED007ADAED007AF8
:1036E000B4EEE77AF1EE10FAC8BF0A8894ED017AD9
:1036F000C6BF013292B200220A80D3ED007A524A4C
:10370000B4EEE77AF1EE10FAC2BF01210180116830
:1037100094ED137AD6BF0021013101801160D3ED01
:10372000007AB4EEE77AF1EE10FA4FF0000154DDC2
:10373000D3ED007A96ED007A77EEC77A94ED297A88
:10374000F0EEE77AF4EEC77AF1EE10FA45D83F4A88
:103750001170D3ED007AD6ED006A94ED297ADFF886
:1037600004E13B483B493C4A77EEE67AF4EEC77AFF
:10377000F1EE10FA33DDDEF80060012E374E3FD156
:10378000DFF8E4E0DEF800C0BCF1000F04D0DEF8A2
:1037900000E0BEF10C0F33D14FF0010E86F800E0CF
:1037A000D4ED057AD4ED2B6A93ED007A77EEE67AC4
:1037B000F4EEC77AF1EE10FA58DD93ED007AD4ED0D
:1037C000097A77EEC77AC0ED007A95ED007AD4EDEC
:1037D0005C7A5AE686ED008A2DE7204AB8E7D6EDF6
:1037E000007AD3ED006ADEF8006077EEE67AB4EE98
:1037F000E77AF1EE10FA40F11583012E134EBEE781
:103800004FF0000ECAE700BF00000240B0050020E4
:10381000FA030020F80300201C06002020060020E8
:103820005C08002000001643C80500205C02002050
:10383000600200206402002078020020DC030020E7
:103840005802002050060020440400209903002064
:10385000D00200208C020020CC020020980300201F
:10386000E1020020EC0300200C0000200023036094
:103870000B60002313603B680133132BC8BF002388
:103880003B60D64C2168142291FBF2F302FB131328
:103890000A2B5AD1D24BD34F1D88D34BDFEDD36ABD
:1038A0005A881A809A885A80DA889A801A89DA8027
:1038B0002AB21A81CE4A116839601E88B3F802E034
:1038C0009888D9881B890FFA8EFE0EFA86F606FABA
:1038D00080F000FA81F101FA83F3052193FBF1F303
:1038E000136092ED007AD7ED007AC24AC24BF8EE2F
:1038F000E77AB8EEC77A67EEA67ADFEDC06AE7EE40
:10390000267AFDEEE77AC2ED007A1B78012BBC4BDC
:1039100040F04284116840F6B9029142D6BF1A685D
:10392000002201321A601B68B3F5FA7F0DDD1CF02E
:1039300047F9002007F06EFBB24FB34D0221384625
:10394000FEF76CF8002800F005842268142192FB31
:10395000F1F301FB1323002B40F0AC81AB4B1B6850
:10396000012B40F0A7812368B3F5A04F80F2A2811C
:10397000A74B2768DFEDA77A206893ED007A90FBCC
:10398000F1F0424202F01F0227EE277A00F01F00FA
:1039900058BF50424FF4C0629F4BDFF884E24FF4AF
:1039A0002076302597FBF6F7BDEEC77A574305FB27
:1039B0000070184417EE107A4780276820689EED43
:1039C000007A90FBF1F027EE277AD0F1000E0EF08E
:1039D0001F0E00F01F0097FBF6F758BFCEF1000056
:1039E0005743BDEEC77A05FB0070184417EE107AF6
:1039F000DFF830E2C780276820689EED007A90FBF0
:103A0000F1F027EE277AD0F1000C0CF01F0C00F03B
:103A10001F0097FBF6F758BFCCF100005743BDEEEF
:103A2000C77A05FB0070184417EE107A47812768A3
:103A300020689EED007ADFF8F0E190FBF1F0DEED1A
:103A4000006A97FBF6F737EE667AD0F1000E27EEA4
:103A5000277A0EF01F0E02FB07F700F01F00BDEEE5
:103A6000C77A58BFCEF1000005FB0070184417EE6E
:103A7000107AC7812768206890FBF1F0D0F1000C24
:103A80000CF01F0C00F01F0097FBF6F758BFCCF1AD
:103A90000000574305FB0070DFF890E1DFED5F6A3F
:103AA000DEF800E0276897FBF6F718445743A0F8C4
:103AB00012E0206890FBF1F0D0F1000C0CF01F0C2C
:103AC00000F01F0058BFCCF1000005FB0070DFF8CC
:103AD00060E11844DEF800E0A0F816E0DFF854E1F9
:103AE000276820689EED007A90FBF1F027EE267A99
:103AF000D0F1000E0EF01F0E00F01F0097FBF6F73E
:103B000058BFCEF100005743BDEEC77A05FB0070E9
:103B1000184417EE107ADFF820E147832768206801
:103B20009EED007A90FBF1F027EE277AD0F1000E9F
:103B30000EF01F0E00F01F0097FBF6F758BFCEF1F6
:103B400000005743BDEEC77A05FB0070184417EE1E
:103B5000107ADFF8E8E0C783276820689EED007AD6
:103B600090FBF1F027EE277AD0F1000E0EF01F0E39
:103B700000F01F0097FBF6F758BFCEF10000574347
:103B8000BDEEC77A05FB0070184417EE107ADFF817
:103B9000B0E04784276820689EED007A90FBF1F042
:103BA00027EE277AD0F1000E0EF01F0E00F01F0056
:103BB00097FBF6F758BFCEF100005743BDEEC77A2A
:103BC00005FB0070184417EE107ADFF878E0C78420
:103BD000276820689EED007A36E000BFB00600201E
:103BE000B005002040060020E20200206666663F25
:103BF0003C0600203806002008000020CDCCCC3D3B
:103C00001403002000040240001C0240AC06002007
:103C1000E005002000007A44F43600200000C8428D
:103C20002407002020040020240400209403002006
:103C30009003002014040020540600201C070020DC
:103C4000600600205806002090FBF1F0F2EE046AB6
:103C5000D0F1000E27EE267A0EF01F0E00F01F00A6
:103C600097FBF6F758BFCEF100005743BDEEC77A79
:103C700005FB0070184417EE107ADFF870E34785F3
:103C8000276820689EED007A90FBF1F167EE277AB5
:103C9000484200F01F0001F01F0197FBF6F658BFE5
:103CA00041427243FDEEE77A05FB0122134417EE11
:103CB000902ADA852168142291FBF2F302FB131398
:103CC000082B40F0A780B94B1B78012B40F0A28055
:103CD000B74B1B78012B40F09D80B64B1B78012B16
:103CE00040F09880B44B1B68052B00F09380B34BD9
:103CF000DFEDB36A93ED007AB24B27EE267AFDEE44
:103D0000C77A9FEDB17ACDED017ABDF804201A8013
:103D1000AE4AD2ED007A67EEA67ADFEDAD6AFDEE2F
:103D2000E77ACDED017ABDF804205A80A94AD2ED98
:103D3000007A67EE877AFDEEE77ACDED017ABDF87D
:103D400004209A80A44AD2ED007A67EE877AFDEECD
:103D5000E77ACDED017ABDF80420DA809F4AD2EDF2
:103D6000007AFAEECA7A67EEA67AF2EE046A77EE85
:103D7000A77A67EE877AFDEEE77ACDED017ABDF896
:103D800004201A81964AD2ED007A67EEA67AFDEEFB
:103D9000E77ACDED017ABDF804205A81914AD2ED3F
:103DA000007A67EEA67AFDEEE77ACDED017ABDF8EE
:103DB00004209A818C4AD2ED007A67EEA67AFDEE55
:103DC000E77ACDED017ABDF80420DA81874AD2ED99
:103DD000007A874AD2ED006A77EEA67A67EE877A94
:103DE000FDEEE77ACDED017ABDF804201A82814A12
:103DF000D2ED007A804AD2ED006A77EEA67A67EEBD
:103E0000877AFDEEE77ACDED017ABDF804205A827B
:103E100006F06EFF23680133236004B0BDEC028B13
:103E2000BDE8F087012E1ED1DFF8FCE19EF80060AE
:103E3000F6B2012E17D1D3ED007A94ED077AB4EEE5
:103E4000E77AF1EE10FA7FF711AD93ED007AD4ED39
:103E5000097A77EEC77AC0ED007A95ED007AD4ED55
:103E60005C7AFFF784BBD3ED007A94ED057AB4EE6B
:103E7000E77A9FE4002210216048FDF7D5FD604BF2
:103E80001A89604B10211A800122FFF7E3B95C4BBD
:103E90005D4C1B895948238000221021FDF7C4FD89
:103EA000584A23881288594E594D9FED5A8A4D4CD5
:103EB0009B1A07EE903AF8EEE77AC6ED007A96ED97
:103EC000007AF7EE007AB4EEE77AF1EE10FA5CDBF6
:103ED000D5F83401FCF740FB804630688946FCF792
:103EE0003BFB41EC100B23F0C3FE404653EC102B80
:103EF0004946FCF7AFFC8046D5F838018946FCF707
:103F00002BFB02460B4640464946FCF7C5F9FCF739
:103F10006FFE2060D4ED007A3F4BF4EEC87AF1EEEC
:103F200010FAC8BF84ED008ADA681A619A68DA600C
:103F30005A689A601A685A6022681A60D3ED007A4B
:103F4000D3ED015A93ED026AD3ED036A93ED047A3F
:103F5000324B77EEA57A77EE867A77EEA67AF1EE97
:103F6000046A77EE877A87EEA67A83ED007AD3ED3E
:103F7000007A95ED027A2A4BB4EEE77AF1EE10FA68
:103F8000CCBF012200221A8075E484ED008AC1E7CB
:103F9000002240211948FDF747FD194B5A88214B53
:103FA00040211A800122FFF755B900BF5C030020B1
:103FB0004C040020280500200C0000201C070020D5
:103FC0000000C842A003002000007A4460060020E0
:103FD0003333534024070020E80600203806002031
:103FE000200600201806002010060020E80500200A
:103FF000E0050020E4050020DC0500200000024070
:10400000B0050020F6030020F40300201406002071
:104010005C08002000001643380200203402002013
:104020004E060020F2030020E0020020C64BC74CE1
:104030005B88C748238000224021FDF7F5FCC54A74
:1040400023881288C44EC54D9FEDC58AC54C9B1A66
:1040500007EE903AF8EEE77AC6ED007A96ED007A30
:10406000F7EE007AB4EEE77AF1EE10FA59DBD5F804
:104070003C01FCF771FA804630688946FCF76CFA1F
:1040800041EC100B23F0F4FD404653EC102B494655
:10409000FCF7E0FB8046D5F840018946FCF75CFA66
:1040A00002460B4640464946FCF7F6F8FCF7A0FDF1
:1040B0002060AD4BD3ED007AAC4BF4EEC87AF1EE54
:1040C00010FAC8BF84ED008ADA681A619A68DA606B
:1040D0005A689A601A685A6022681A60D3ED007AAA
:1040E000D3ED015A93ED026AD3ED036A93ED047A9E
:1040F0009F4B77EEA57A77EE867A77EEA67AF1EE89
:10410000046A77EE877A87EEA67A83ED007AD3ED9C
:10411000007A95ED037A974BB4EEE77AF1EE10FA58
:104120002EE784ED008AC4E7002210218848FDF7BD
:104130007BFC002240218648FDF776FC002280218E
:104140008348FDF771FC002220218148FDF76CFCBB
:10415000FFF797BB884E012202212846FDF764FC39
:10416000013EF8D1844E002202212846FDF75CFC76
:10417000013EF8D1804E012202212846FDF754FC71
:10418000013EF8D17C4E002202212846FDF74CFC6E
:10419000013EF8D1FFF7D2BB40F2C172954296BF03
:1041A0001A68002201321A601B68962B7FF7CDAB8C
:1041B000724B734F734D05221A601BF001FD0020F6
:1041C00006F028FF002210216148FDF72DFC002297
:1041D00040215F48FDF728FC002280215C48FDF764
:1041E00023FC002220215A48FDF71EFC02213846FC
:1041F000FDF714FC002860D00023634A0393039B5F
:1042000093427BDD614D5E4E5E4FDFF87C81002383
:104210002B6002213046FDF701FC012802461AD12D
:1042200002213846FDF700FC00230393039B43451E
:1042300068DD022138460022FDF7F6FB02213046F8
:10424000FDF7ECFB002860D12B6801332B602B6855
:10425000102B00D128602A683D4812F0010218BFD7
:1042600001224FF40051FDF7DFFB2A683848022392
:1042700092FBF3F212F0010218BF01224FF4807199
:10428000FDF7D2FB2A683248042392FBF3F212F0C6
:10429000010218BF01224FF40061FDF7C5FB2A6837
:1042A0002B48082392FBF3F212F0010218BF0122FF
:1042B0004FF48051FDF7B8FBABE72F4E01220221EE
:1042C0002846FDF7B1FB013EF8D12B4E002202211A
:1042D0002846FDF7A9FB013EF8D1274E0122022115
:1042E0002846FDF7A1FB013EF8D1234E0022022112
:1042F0002846FDF799FB013EF8D177E7039B013390
:1043000003937CE7039B01338FE702213046FDF7DF
:1043100085FB012881469ED1002006F07BFE4A469F
:1043200002211848FDF780FB2868C0B219F090FC04
:1043300006F00CFD002202211248FDF775FB002358
:104340002B60FFF702BB00BFB0050020F003002088
:1043500000000240F20300200C0600205C08002050
:10436000000016431006002018060020200200203E
:104370001C0200204C060020400D03000C00002011
:1043800000040240001C02407F841E00C40600207E
:104390002DE9F04F4E4F4F4CB7F900302DED028B09
:1043A00085B0002B40F0BC8014F088FB0123206016
:1043B0003B80B7F90030012B40F0858414F04CFDB0
:1043C000B0EE408A14F012FD434B444A83ED000ADC
:1043D000434B11684348196003684349434C0B2B16
:1043E000434B03D000680D2840F011844148D0EDC4
:1043F000007AF5EE407AF1EE10FA00F008843E48BB
:104400000078012840F00384186808603B48DFED1D
:104410003C7A0578042D40F0E98391ED007A394922
:10442000B0EE486AD1ED005A374997EE276AD1EDD0
:104430006B6A9FED367A66EE876A86EEA57A37EE6E
:10444000277AC6EE076AC3ED006A93ED007A67EE3D
:10445000277AC4ED007A82ED008A2D4B59681960E5
:1044600099685960D96899601969D96011681961AA
:10447000D3ED007AD3ED015A93ED026AD3ED036ACE
:1044800093ED047A234B77EEA57A77EE867A77EE72
:10449000A67AF1EE046A77EE877A87EEA67A83ED44
:1044A000007A1D4BD2ED007A93ED007A77EE877A91
:1044B000C3ED007A93ED007ADFED187AB4EEE77A77
:1044C000F1EE10FA40F3AA83C3ED007AB0E300BF27
:1044D000340400203C0300200C0300206006002070
:1044E000D00600200C0000201C0400201404002032
:1044F00018040020F0050020280500202C060020CC
:1045000000007A44200400205C0800200000C8421B
:104510006806002064060020F4050020C9B28B5212
:1045200014F0D3FA2168AB4AAB4CAC4B1160186065
:104530002160AB4908601268012A884604BFA94976
:104540000A701B68A8490091012B04BFA74A137089
:1045500023680A68A6499B1A9BB203F580521EB2D3
:1045600012B2A14686EAE67582EAE274A3F58053A8
:104570001BB2A5EBE675A4EBE2742DB224B283EA7C
:10458000E370A0EBE370A54200B200F30B8185421B
:1045900000F30C810E60974A0B68106803441360A7
:1045A000954AD8F8003012689B1A9BB203F58050E8
:1045B0000FFA83FE00B28EEAEE7680EAE075A3F58C
:1045C00080531BB2A6EBEE76A5EBE07536B22DB2AA
:1045D00083EAE374A4EBE374AE4224B2874A00F3A7
:1045E000E780A64200F3E880C2F800E0844814683F
:1045F00003689FED847A844E844D9FED856ADFF8D1
:1046000064C21B1B03608348D1ED007AD0ED516A70
:104610008149824C66EE876AF8EEE77A9FED807AF0
:1046200067EEA67AB6EE008A67EE877AC6ED007A64
:10463000D2ED007A7B4AF8EEE77A67EEA67ADFEDF4
:104640007A6A67EE677AC5ED007A0B681360774B7C
:10465000D4F800E0C3F800E0D6ED007A92ED007ADD
:10466000DFF804E2724A27EE067AA7EEA67A81ED19
:10467000007AD5ED007A93ED007A27EE067AA7EE60
:10468000A67A84ED007ADEF80030CCF80030694B71
:10469000D3F800A0C2F800A0D6ED007A9CED007A15
:1046A00027EE067AA7EEA67A8EED007A95ED007ACF
:1046B000D2ED007A604A67EE867AE7EE267AC3ED9D
:1046C000007A5E4BD2F800E0C3F800E05C4BD1F812
:1046D00000E0C3F800E05B4BD4F800E0C3F800E072
:1046E000594BDFF888E1D3F800C0CEF800C0DFF8FE
:1046F00080C190ED606ADCED005A9EED007AD6ED47
:10470000006A95ED005AF7EE007A76EE856A77EE4C
:10471000C67A67EEA67ADFED4D6AA5EEA67A67EE59
:10472000887AD0ED526A4A48E6EE077AC3ED007AFD
:10473000D3F800E0C2F800E0D3F800E0454BC3F83E
:1047400000E0D1ED007A94ED007A77EEC77A87EE3B
:10475000A67A80ED007AD2ED007A3F4A92ED007A97
:1047600077EE877AC2ED007A92ED007ADFED3B7A40
:10477000B4EEE77AF1EE10FA20DDC2ED007A93EDA7
:10478000007A374BD3ED006A37EE267A83ED007A54
:1047900093ED007AB4EEE77AF1EE10FA6CDDC3ED3A
:1047A000007A72E0844201DC0A60F4E60B60F2E613
:1047B000A54201DC106019E7136017E7D2ED006A2B
:1047C0009FED2C7AF4EEC76AF1EE10FA48BF82ED45
:1047D000007AD4E794030020A8060020900300206C
:1047E000A40600208D030020800600208C030020FA
:1047F0008C0600203C0700207C0600208806002054
:1048000038070020DB0F4940FC060020F806002096
:104810006666663F5C08002010070020F006002056
:104820000000803908070020CDCCCC3D00070020D7
:1048300004070020F4060020E8060020D40600202B
:10484000DC060020D8060020200400206F12833AE6
:1048500010030020EC060020FC050020C9B28B529A
:10486000000600200C07002014070020240400206C
:104870000C030020F90215D093ED007A5FED037A66
:10488000B4EEE77AF1EE10FA89D4C34BDFF848B3FF
:104890001A68DFF848A3052A00F069811A68022A1D
:1048A00000F065811B680E2B00F06181BB4BD1EDE0
:1048B000007A93ED007A77EEC77AF0EEE77A17EE9A
:1048C000900AFBF749FEB2A3D3E90023FCF728F9CD
:1048D000002800F0D280DBF800300133CBF8003044
:1048E000AF4BD4ED007A93ED007A77EEC77AF0EE15
:1048F000E77A17EE900AFBF72FFEA5A3D3E9002372
:10490000FCF70EF9002800F0BB80DAF80030013324
:10491000CAF80030A34BD3ED007AA34B93ED007A95
:10492000A24B77EEC77AB1EE007AF0EEE77AF4EEBA
:10493000C77AF1EE10FACABF1A68002201321A6073
:10494000DBF800204B2A13DC994A12684B2A0FDC53
:10495000DAF800204B2A0BDC964A12684B2A07DC57
:104960001B684B2B04DC944B1B684B2B40F3DB8008
:104970001BF026F9002006F04DFB002210218F4885
:10498000DFF85CA28D4CFDF74FF8002240218B48E8
:10499000FDF74AF8002280218848FDF745F80022FB
:1049A00020218648FDF740F802215046FDF736F8F1
:1049B000002868D00023824A0393039B934240F36C
:1049C0008F80804CDFF818A2DFF8FCB10023236051
:1049D00002215046FDF722F8012802461BD1022190
:1049E0005846FDF721F800230393039B744A934232
:1049F0007ADD022158460022FDF716F802215046C2
:104A0000FDF70CF8002872D1236801332360236876
:104A1000102B00D120602268684812F0010218BFF4
:104A200001224FF40051FCF7FFFF22686348022384
:104A300092FBF3F212F0010218BF01224FF48071D1
:104A4000FCF7F2FF22685D48042392FBF3F212F0B8
:104A5000010218BF01224FF40061FCF7E5FF226854
:104A60005648082392FBF3F212F0010218BF01220C
:104A70004FF48051FCF7D8FFAAE7CBF800002FE7EE
:104A8000CAF8000046E7DFF85CB101224FF400618C
:104A90002046FCF7C9FFBBF1010BF6D1DFF844B1AA
:104AA00000224FF400612046FCF7BEFFBBF1010B72
:104AB000F6D1DFF830B101224FF400612046FCF757
:104AC000B3FFBBF1010BF6D1DFF81CB100224FF4AC
:104AD00000612046FCF7A8FFBBF1010BF6D163E7AC
:104AE000039B0133039368E7039B01337CE70221B7
:104AF0005046FCF793FF01288DD10190002006F06D
:104B000089FA019A30480221FCF78EFF2068C0B272
:104B100019F09EF806F01AF9002202212A48FCF743
:104B200083FF0023236096ED007A284BD5ED006AC1
:104B3000D3ED007A009A37EE267AE7EE087AC3EDD5
:104B4000007A96ED007A224BD5ED006AD3ED007A1B
:104B500037EE267AE7EE087AC3ED007AD9F800300E
:104B600013601C4BD8F800201A60002320E4104A80
:104B7000002313600F4ACBF8003013600B4ACAF8C9
:104B8000003013600C4A1360CDE700BFAFF3008024
:104B9000333333333333E33F0C0000202C07002042
:104BA000280700201C07002060060020500300207A
:104BB000440300204C030020540300200000024066
:104BC0007F841E00C4060020001C02409C060020BA
:104BD000840300207C0600204003002048030020BE
:104BE00000040240400D0300C0270900007802289D
:104BF0007FF42BAC91ED007A3949D1ED005A394957
:104C0000B0EE486A97EE276AD1ED6C6A11E4002095
:104C100082ED008A2060186008601EE493ED007A3F
:104C2000DFED317AB4EEE77AF1EE10FA3FF54CACF5
:104C3000D2ED007A9FED2D7A9FED2D6A2D4B2E4CF3
:104C4000D3ED006A67EE877A9FED2C7A67EE877A5C
:104C500018EE100A87EE867A77EE267AC3ED007A90
:104C6000D4E90067FBF778FC19A3D3E90023FBF72D
:104C7000C7FC0022224BFBF7C3FC17A3D3E9002398
:104C8000FBF7E8FD32463B46FBF708FBC4E90001B1
:104C90001C4B1D4C1868FBF75FFCD4E900670CA3A4
:104CA000D3E90023FBF7ACFC0022154BFBF7A8FC73
:104CB00009A3D3E90023FBF7CDFD32463B46FBF7C2
:104CC000EDFAC4E9000105B0BDEC028BBDE8F08F40
:104CD000FCA9F1D24D62503FEA2E4454FB21094019
:104CE000200400205C080020F90215D06F12833ADE
:104CF000DB0F494084060020C0050020000034433B
:104D0000008066401C0700203006002000000000E4
:104D10002DE9F04FB84B2DED048B1A6885B09A46FB
:104D20005AB11B68022B08D0DAF80030082B04D0E7
:104D3000DAF80030092B40F03183B04ADFEDB06A79
:104D400092ED006AAF4BB04993ED007AC6EE267A39
:104D500077EE877AC3ED007A93ED007AD1ED007A91
:104D6000B4EEE77AF1EE10FA03DD0968196000216C
:104D70001160A64A196811601A68A54B1A60DAF822
:104D8000003023B1DAF800300C2B43F09387A14CAC
:104D90002378012B12D1A04B1A687AB99F4B19784E
:104DA00001290BD19E4991ED007A9E49D1ED007AFF
:104DB000B4EEE77AF1EE10FAA8BF1A702378012B4F
:104DC00012D1954B1A687AB9974B197801290BD1F2
:104DD000934991ED007A9549D1ED007AB4EEE77AE6
:104DE000F1EE10FAA8BF1A70914B1A689B46002A80
:104DF0005BD1904BD3ED007A8F4B93ED007A77EE39
:104E0000877A9FED8E7AF4EEC77AF1EE10FA4CDDD8
:104E1000814B1B68002B48D12378012B03D1884B91
:104E20001B78012B07D0874B1B68012B3DD1864B8C
:104E30001B78032B39D12378844A8549012B854B74
:104E400041F0C2806F48D2ED1F7A90ED007A93ED69
:104E5000007AF4EEC77AF1EE10FA11D57E4B93ED9D
:104E6000007AF4EEC77AF1EE10FA09DD6C4B92EDA0
:104E7000467AD3ED007A794B77EE877AC3ED007AE4
:104E8000D2ED207A91ED007AF4EEC77AF1EE10FAC5
:104E90000BD5734B93ED007AF4EEC77AF1EE10FA6E
:104EA000C1BF5F4B1A686F4B1A606F4B00931A6853
:104EB000002A40F08D80584B1B68002B00F0888042
:104EC0002378012B40F08480684B93ED007A684B87
:104ED000D3ED007A77EE677A17EE900AFBF73CFB8A
:104EE00041A3D3E90023FBF71BFE002870D0574DE8
:104EF000584AD5ED217A92ED007AF4EEC77AF1EEB8
:104F000010FA30D5544B93ED007AF4EEC77AF1EEF7
:104F100010FA28DD574ED6ED007AF5EE407AF1EE24
:104F200010FA17D0D6ED007AF5EE407AF1EE10FACD
:104F300019D03B4B93ED007AD6ED007A77EE677A85
:104F400017EE900AFBF708FB29A3D3E90023FBF730
:104F5000DDFD40B1324B95ED247AD3ED007A77EE4A
:104F6000877AC6ED007A3A4BD5ED227A93ED007A36
:104F7000F4EEC77AF1EE10FA2AD5394B93ED007AA8
:104F8000F4EEC77AF1EE10FA22DD3B4DD5ED007A52
:104F9000F5EE407AF1EE10FA17D0D5ED007AF5EE85
:104FA000407AF1EE10FA13D01D4B93ED007AD5ED57
:104FB000007A77EE677A17EE900AFBF7CDFA0CA32A
:104FC000D3E90023FBF7A2FD10B1154B1B682B6042
:104FD0002A4B9FED2B8AD3ED007AF4EEC87AF1EEDE
:104FE00010FA99467DD54DE052B81E85EBD14F4061
:104FF00052B81E85EBD15F400C0000205406002003
:1050000000007A4424070020C00600202C0700205E
:10501000280700202805002080050020900200209D
:105020008403002004020020540200200802002013
:1050300030030020340200201C02002000007A43CC
:1050400060040020EC0300202C0300205C080020FA
:105050002006002028060020CC0500202003002088
:10506000C80500201803002034030020A0060020FB
:105070009C060020240300201C03002018060020AA
:105080000000B442A94AD2ED007AF4EEC87AF1EEFB
:1050900010FA154625D5A6490B68012B21D1A54B41
:1050A00099ED007A93ED376ADFEDA37A37EE467A11
:1050B0001846B0EEC77AB4EEE77AF1EE10FA40F196
:1050C000A28792ED007AD3ED386A37EE667AB0EEB9
:1050D000C77AB4EEE77AF1EE10FA40F19487002334
:1050E0000B60D9ED007ADFED958AF4EEE87AF1EE07
:1050F00010FA45D58D4BD3ED007AF4EEE87AF1EE57
:1051000010FA3DD58E4A11680129114638D1894AD5
:1051100099ED007A92ED426ADFED877A37EE467AB2
:10512000B0EEC77AB4EEE77AF1EE10FA0CD593ED53
:10513000007AD2ED436A37EE667AB0EEC77AB4EE03
:10514000E77AF1EE10FA19D499ED007AD2ED435ACC
:1051500037EE657AB0EEC77AB4EEE77AF1EE10FA80
:1051600040F1698793ED007A37EE467AB0EEC77A60
:10517000B4EEE77AF1EE10FA40F15D8700230B60A0
:10518000704B714A1B68012B41F03D801368642B02
:105190003DDC6E4B198889B2012940F0CD876C49FE
:1051A000098889B2012940F0C7876A49614DD1ED6C
:1051B000007A694991ED007A77EE877A95ED457A24
:1051C000F4EEC77AF1EE10FA40F3B687634B644809
:1051D00095ED297AD0ED007AD3ED006A6149624BF2
:1051E00077EEE67AF4EEC77AF1EE10FA40F33987FB
:1051F00091ED007AD5ED0D6AD3ED007A37EE667A3F
:1052000077EEC77AC3ED007A136801331360574B0A
:10521000574D1B7823B1554B1B78022B41F04C8422
:105220002378544A012B20D1534B1B78012B1CD1DE
:105230001368D3B9514B1B78BBB1514B1968012985
:105240000FD15049D1ED007A4F4991ED007A77EEB8
:10525000C77A9FED4E7AF4EEC77AF1EE10FA41F27A
:105260002B841B68012B41F027841668002E41F027
:10527000BE81237893B92F4BD3ED107A384B93ED41
:10528000007AF4EEC77AF1EE10FA07D5334B93EDBE
:10529000007AF4EEC77AF1EE10FA1ADC2378012BCB
:1052A00041F011812D4BD3ED007A224B93ED647ABE
:1052B000B4EEE77AF1EE10FA41F30581344A93ED4A
:1052C000697AD2ED007AB4EEE77AF1EE10FA41F1A4
:1052D000FA80304B1868002841F0F5801F4AD2ED63
:1052E000007AF5EE407AF1EE10FA01F0EC802A4AED
:1052F000D2ED007AF5EE407AF1EE10FA01F0E3809B
:105300002A68002A01F0DF802A68012A40F081879C
:105310001C49D1ED007A074991ED2C7A1A4977EEB4
:10532000C77AC1ED007A1A6001F0CEB810060020ED
:10533000380400205C080020CDCC4C3E00003443F3
:1053400008040020EC030020C403002052060020C3
:1053500050060020340200201C020020CC05002052
:105360002806002020060020D00300202C03002067
:1053700040040020800500206104002080040020FB
:10538000F4020020A00600209C0600200000344209
:105390009402002058030020C8050020DAF80030ED
:1053A0000C2B40F08480A44BA44D1A689FEDA48A76
:1053B000A44EDFEDA59AA54CA54F01321A60D5ED9C
:1053C000008A95ED007AD6ED006A93ED000A27EE8B
:1053D000087AB8EEC00AC7EE267AB6EE009A27EE33
:1053E000800A20EE290A1EF057FA68EE887A67EEE6
:1053F000897A27EE800A84ED000A3A78012A1CD1C6
:10540000D4ED007AF5EEC07AF1EE10FA15D8D5EDAC
:10541000008AD5ED007A96ED007A67EE887A87EEFD
:10542000870A20EE290A1EF037FA68EE887A67EEBE
:10543000897A27EE800A84ED000A3B78022B1CD182
:10544000D4ED007AF5EEC07AF1EE10FA15DDD5ED67
:10545000008AD5ED007A96ED007A67EE887A87EEBD
:10546000870A20EE290A1EF017FA28EE888A28EE0D
:10547000098A28EE008A84ED008A94ED006ADFED47
:10548000756A754B754A93ED007AC6EE267A77EE0B
:10549000877AC3ED007A93ED007AD2ED007AB4EE0C
:1054A000E77AF1EE10FAC4BF12681A6061E4DAF824
:1054B0000030012B7CD16A4B9FED667A93ED006A38
:1054C000684B694AD3ED006A6849C6EE077A77EE01
:1054D000A67AC3ED007AD3ED007AD2ED005A87EEBA
:1054E000876A9FED637ADFED567A26EE076AC6EE8D
:1054F000276A76EEA56AC2ED006A0878022818D1FC
:105500005C4993ED006AD1ED006AB4EEE66AF1EE13
:1055100010FAC4BF09681960574992ED006AD1EDCD
:10552000006AB4EEE66AF1EE10FA1CDD096811605B
:1055300019E0097804297FF422AC4E4993ED006A02
:10554000D1ED006AB4EEE66AF1EE10FA44BF0968E4
:105550001960494992ED006AD1ED006AB4EEE66A3D
:10556000F1EE10FAE2D4D3ED005A444A65EE875AC0
:10557000D2ED526A424A85EEA76A66EEA76ADFED6F
:10558000415A26EE266A86EE255A82ED005A93EDA0
:10559000006A3D4B26EE077A87EE276A66EE266A9A
:1055A000C6EEA57AF1EE677AC3ED007AFFF7E7BBA6
:1055B000DAF80030032B40F01681294BDFED257A15
:1055C00093ED006A274C294BD4ED006A224EDFEDA3
:1055D0001C8A254D9FED268A86EE277A37EE267A9D
:1055E00084ED007A1A78022A50D1224BD4ED006A59
:1055F00093ED007AF4EEC76AF1EE10FAC4BF1B68AF
:10560000236094ED006AD5ED006A1B4B86EE277A85
:1056100027EE087AC7EE287A77EEA67AC5ED007AEB
:1056200095ED007AD3ED007AB4EEE77AF1EE10FA58
:1056300053DD1B682B6050E0A4070020700700209A
:10564000DB0F4940900700206F12833A5406002078
:105650007507002000007A4424070020C0060020BF
:10566000580600201C070020200700202C060020E0
:1056700000003443B4060020BC0600205C08002073
:105680002C0700200000B443280700201B78042BBF
:105690003ED1D54BD4ED006A93ED007AF4EEC76AA3
:1056A000F1EE10FA44BF1B68236094ED006AD5ED5B
:1056B000006ACE4B86EE277A27EE087AC7EE287A64
:1056C00077EEA67AC5ED007A95ED007AD3ED007AF3
:1056D000B4EEE77AF1EE10FAABD4C54BD4ED006A24
:1056E000D3ED525AD6ED007AC24B65EEA66AB6EEFD
:1056F000006AE6EE867AC3ED007AD6ED007A94ED84
:10570000007ABD4B27EE657AE7EE067AC3ED007AA4
:10571000BA4F95ED000AD7ED007ADFF8308330EE0E
:10572000670A60EE287A87EE880A1EF0B5F8B44B57
:1057300096ED007AD3ED007AE0EE477AC3ED007A79
:1057400095ED000AD7ED007AAE4D30EE670AB0EE67
:10575000C00A60EE287A87EE880A1EF0E1F8AA4BAC
:1057600096ED007AD3ED007AE0EE077AC3ED007A89
:1057700098ED000AD7ED007A30EE670A60EE287ADD
:1057800087EE880A1EF088F8A04B95ED007AD3EDDD
:10579000007AE0EE477AC3ED007A98ED000AD7ED83
:1057A000007A30EE670AB0EEC00A60EE287A87EE23
:1057B000880A1EF0B5F8964B95ED007AD3ED007A85
:1057C000E0EE077AC3ED007AD4ED007A96ED007A28
:1057D000DFED906A904B67EE877A87EEA67A83EDCD
:1057E000007AFFF7CCBADAF800300B2B40F0DE81FC
:1057F0008A4B8B4F1A689FED8B8ADFF854828A4E52
:1058000001321A60D7ED007AF5EE407AF1EE10FA27
:1058100000F0AF80854DDFED869AD5ED008A95EDDD
:10582000007AD7ED006A93ED000A27EE087AB8EE09
:10583000C00AC7EE267A27EE800A20EE290A1EF05B
:105840002BF828EE887AF6EE007A27EE277AB0EE6B
:10585000679A27EE000A88ED000A3378042B42D1BC
:10586000744C2378012B1CD1D8ED007AF5EEC07A68
:10587000F1EE10FA15DBD5ED008AD5ED007A97ED43
:10588000007A67EE887A87EE870A20EE290A1EF0F2
:1058900003F828EE887A27EE097A27EE000A88EDC9
:1058A000000A2378022B1ED1D8ED007AF5EEC07ADB
:1058B000F1EE10FA17D8D5ED008AD5ED007A97ED04
:1058C000007A67EE887A87EE870A20EE290A1DF0B3
:1058D000E3FF28EE887A002327EE097A27EE000AF4
:1058E00088ED000A23703378022B42D1514C237883
:1058F000012B1CD1D8ED007AF5EEC07AF1EE10FA4A
:1059000015D8D5ED008AD5ED007A97ED007A67EECF
:10591000887A87EE870A20EE290A1DF0BDFF28EE5F
:10592000887A27EE097A27EE000A88ED000A2378A4
:10593000022B1ED1D8ED007AF5EEC07AF1EE10FA06
:1059400017DBD5ED008AD5ED007A97ED007A67EE8A
:10595000887A87EE870A20EE290A1DF09DFF68EEFF
:10596000887A002367EE897A27EE800A88ED000A9C
:10597000237098ED006ADFED307A304C304FD4ED73
:10598000006A304DDFED308A86EE277A37EE267AD0
:1059900084ED007A3378022B5CD1134BD4ED006A8E
:1059A00093ED007AF4EEC76AF1EE10FAC4BF1B68FB
:1059B000236094ED006AD5ED006A0C4B86EE277AE1
:1059C00027EE287AC7EE087A77EEA67AC5ED007A38
:1059D00095ED007AD3ED007AB4EEE77AF1EE10FAA5
:1059E0005FDD1B682B605CE0B4060020BC06002075
:1059F0005C0800202C070020280700201807002042
:105A000094070020E8060020980700208407002063
:105A100088070020CDCC1C419C030020A00700205B
:105A2000B8060020DB0F49402C0600205C06002051
:105A30006F12833A7407002000007A441C0700208C
:105A400024070020200700200000344384060020A3
:105A5000580600203378042B3ED1A44BD4ED006AC5
:105A600093ED007AF4EEC76AF1EE10FA44BF1B68BA
:105A7000236094ED006AD5ED006A9D4B86EE277A8F
:105A800027EE287AC7EE087A77EEA67AC5ED007A77
:105A900095ED007AD3ED007AB4EEE77AF1EE10FAE4
:105AA0009FD4944BD4ED006AD3ED525AD7ED007ACF
:105AB000914B65EEA66AB6EE006AE6EE867AC3ED15
:105AC000007AD7ED007A94ED007A8C4B27EE657A58
:105AD000E7EE067AC3ED007A894E95ED000AD6ED21
